:1000030010FE9292FE101010FEBA92BA929ABAFEA5
:10001300FE20203E2242840892FE103E6294087025
:1001C10020202810401022F0151F081016F02100E1
:1001D100004000E0FE584247424042504260FEC0AB
:1001E10000000020200800000000000000000000C6
:1001F10000000000000000000000000000000000FE
:06020100000000000000F7
:0602080012016112024622
:10020E00E4F56CC2A1E4F56DE56C04F56EFF120227
:10021E0076E56D75F008A42408256CF8E6FF120249
:10022E007600056DE56DC3940440DDD2A1056CE545
:08023E006CC3940840CD80C898
:03002300020026B2
:10002600C0E0C0F0C0D075D000C000C003C004C09E
:0500360005C006C00733
:10003B002098030200C2744C254BF8A699054BE59A
:10004B004B7002054A6420454A706AF548F549FD34
:10005B00FC7E007F00744C2549F8E6FBED75F0083B
:10006B00A424082FF8A6030549E549700205480F9B
:10007B00BF00010EEF64084E70DB0DBD00010CEDEF
:10008B0064044C70CC7E007F0074102FF8E6FD7476
:10009B00182FF8E6FC74102FF8A60474182FF8A686
:1000AB00050FBF00010EEF64084E70DD754A007539
:0700BB004B0075994CC2983F
:1000C200D007D006D005D004D003D000D0D0D0F0D5
:0300D200D0E03249
:10026100EF4E6010007D027CC7DCFEDDFCEF1F70ED
:04027100EF1E80EC10
:010275002266
:10016100E4F56FE4FD7F09120287056FE56FC39423
:100171000440F0E4F56F7D037F0A120287056FE505
:100181006FC3940440F0E4F56F7D077F0B12028783
:10019100056FE56FC3940440F0E4F56F7D017F0CBA
:1001A100120287056FE56FC3940440F0E4F56FE434
:0F01B100FD7F0F120287056FE56FC3940440F0C6
:0101C000221C
:100276007E08C2A2EF3392A0EF25E0FFD2A2DEF203
:010286002255
:0E028700C2A1120276AF0512027600D2A122A9
:1002460043878075985053890F438920758BFA75BB
:0B0256008DFAC2ABD28ED2ACD2AF2228
:030000000200D526
:0C00D500787FE4F6D8FD75816F02011CF5
:1000E100020208E493A3F8E493A34003F68001F22B
:1000F10008DFF48029E493A3F85407240CC8C33320
:10010100C4540F4420C8834004F456800146F6DFEE
:10011100E4800B01020408102040809001C1E47EBC
:10012100019360BCA3FF543F30E509541FFEE493E3
:10013100A360010ECF54C025E060A840B8E493A3AA
:10014100FAE493A3F8E493A3C8C582C8CAC583CAD5
:10015100F0A3C8C582C8CAC583CADFE9DEE780BE8D
:0102070000F6
:00000001FF
